:020000022000DC
:106000000000012079630200616302006363020003
:10601000656302006763020069630200000000001C
:106020000000000000000000000000006B630200A0
:106030006D630200000000006F63020071630200E4
:10604000A99E020073630200B5A4020073630200FC
:10605000736302007363020039A30200C5AD02003E
:10606000FDB202000DB302001DB302007363020013
:1060700073630200736302007363020073630200C0
:10608000736302008D710200736302007363020088
:106090002972020073630200B103030073630200FC
:1060A0007363020073630200736302007363020090
:1060B0007363020073630200000000000000000030
:1060C0007363020073630200736302007363020070
:1060D0007363020073630200736302000000000038
:1060E00000000000000000000000000000000000B0
:1060F00000000000000000000000000000000000A0
:10610000000000000000000000000000000000008F
:10611000000000000000000000000000000000007F
:10612000000000000000000000000000000000006F
:10613000000000000000000000000000000000005F
:10614000000000000000000000000000000000004F
:10615000000000000000000000000000000000003F
:10616000000000000000000000000000000000002F
:10617000000000000000000000000000000000001F
:10618000000000000000000000000000000000000F
:1061900000000000000000000000000000000000FF
:1061A00000000000000000000000000000000000EF
:1061B00000000000000000000000000000000000DF
:1061C00000000000000000000000000000000000CF
:1061D00000000000000000000000000000000000BF
:1061E00000000000000000000000000000000000AF
:1061F000000000000000000000000000000000009F
:10620000364937480A1A02D0072291438D4635494C
:1062100035480A1A06D00722914381F309880222E1
:1062200082F3148831483249324A00F045F8324846
:106230003249334A00F040F832483349334A00F0DB
:106240003BF833483349344A00F036F83348344990
:10625000344A00F031F834483449354A00F02CF81B
:1062600034483549354A00F027F835483549002289
:1062700000F02DF834483549002200F028F8344861
:106280003449091A082903DB002202600430016046
:10629000314A90471F482049884205D0026804309F
:1062A00003B4904703BCF7E700208646EC46002085
:1062B00000212A4A9047FEE7884207D0521A05D0AB
:1062C000037801300B700131013AF9D170478842EF
:1062D00002D002700130FAE7704700000000012090
:1062E00000E000200000012000000120482E0300F3
:1062F0003422002088220020D8630200D8630200E4
:1063000056090300482E03003422002034220020C6
:10631000F00A0300F00A0300F00A0300F00A030089
:10632000F00A0300F00A0300F00A0300F00A030079
:10633000482E03009C2E0300882200208822002083
:1063400088220020A8340020A8340020A83400208F
:10635000A8340020A8540020A1630200F1BA020072
:10636000FEE7FEE7FEE7FEE7FEE7FEE7FEE7FEE705
:10637000FEE7FEE7704700BF1048804710484FF027
:106380000701884385460F4880470F48016841F45C
:1063900070010160BFF34F8FBFF36F8FFFF730BF06
:1063A0000A480B490B4A884207D0521A05D0037895
:1063B00001300B700131013AF9D170477563020069
:1063C00000000120A998020088ED00E0DC0A03002B
:0863D0002022002034220020ED
:1063D800F0B595B01C46164608460D4602F0D2FEAA
:1063E8001A9B0D93CDE9086400242346082205A9C9
:1063F80028460A948DF82C400C9402F0E1FE079B85
:106408000293BDF81830ADF80C30BDF81A30ADF86D
:106418000E309DF814308DF8114003F00302012A64
:106428001DD1BDF81440059EC3F3C203C4F3831401
:106438008DF81030A20008230EA9284602F0C0FEED
:10644800C6F3952608AB0093224602AB0EA9304648
:1064580000F0F0FB284602F099FE15B0F0BD022AC4
:10646800F8D1BDF81640C3F3C203A4098DF8103063
:106478000827082C264628BF08263B4632460EA980
:10648800284602F09DFEA41B08AB02AA31460EA8BE
:10649800374400F033FC002CEBD1DBE7014B012241
:1064A8001A707047C92200207047000070B50E4D61
:1064B80006460FCD88B06C460FC495E80F0084E8F7
:1064C8000F0008A9002E4FF00603084A41F8203DA6
:1064D80008BF0022064803F06DFC08B100F0A4FDD7
:1064E800044B1E7008B070BDF00A0300A5640200DA
:1064F800342200208822002007B5044B0093044A68
:106508004023FFF765FF03B05DF804FB1D6502003B
:106518008922002038B50D4B0D4D002018700D480C
:1065280004782D5DD2B21C4665B1043004F0F6FB48
:1065380008B100F079FD084B1A7812B12378002BC6
:10654800FBD038BD0C3004F0E3F9F1E7C922002094
:10655800042C0020342200208822002008B5084896
:10656800084A0378D35C3BB1043004F073FB002085
:10657800BDE80840FFF79ABF0C3004F065F9F6E76C
:1065880034220020042C00200120FFF78FBF0000D8
:1065980008B5FFF7F9FF0421034800F0B9FA034BE7
:1065A80001225A7108BD00BFCC0A0300482200200E
:1065B800037813F0040216D003F00303012B03D071
:1065C800022B09D0012070470A6800880232C0F304
:1065D800831002440A60F5E70B684288023303EB34
:1065E80092130B60EEE71046704700002DE9F04F5C
:1065F80089B00546861C08A8484C019200230F461E
:1066080000F8113D00F0F8FF23683B60D4E901234E
:106618001344226801339B1A04F21C4704F5836A69
:1066280004F21448B3421AD3019A0023002A6DD009
:10663800012262F3010343F0040365F3891321681F
:10664800A2689DF80F000A4003320E4444F8223035
:10665800266000F0F5FF012009B0BDE8F08F0121A8
:10666800384602F011F8504602F027F8404602F08A
:1066780024F80DF120096068D4F808B049F8100D25
:1066880000EA0B00033004EB80004946FFF790FF57
:10669800049BB0B90BEA030204EB8202D1680591AE
:1066A8009A1C013303EA0B0B04EB8B0C01F0030378
:1066B800012B0492DCF80CB020D0022B04D08346C6
:1066C8000BE00BEA0300DDE7BDF816309B09033346
:1066D8004FEA1B4B02EB93030493404601F0F0FF93
:1066E80008B1049B63605946384601F0CDFFD4E9F0
:1066F80001231344226801339B1A93E7BDF8143031
:10670800C3F383134FEA1B4B1344E5E7022262F3FA
:10671800010343F0040365F39F5390E79C23002093
:106728000B4B0C48FF2210B59A600022C3F81824BE
:10673800C3E90022C3F8142483F8202402F0DBFC08
:10674800044610B9044802F085FD204610BD00BF7C
:106758009C230020E8090300300B030030B50A4CE5
:1067680071B10A4A0A49121BD20800239A4201D180
:10677800002030BD31F82350854202D00133F5E7BF
:10678800034654F83300F4E7FC090300CC0A03007D
:1067980034220020094B013903EBC000032909D832
:1067A800DFE801F00A020406042070470079704708
:1067B800407970470020704702207047FC090300A9
:1067C800034BD3E90030C31A58425841704700BF01
:1067D8009C2300202DE9F04387B0FFF7F1FF064620
:1067E800002840F0FC807F4DC5F81804BFF34F8F98
:1067F8006868AC6806AF47F8100D2040033005EB19
:1068080080003946FFF7D4FE029B18B1D5F818244A
:10681800002A5FD004EA0302991C013305EB8202C7
:10682800234005EB8303D268DB68049302F003037B
:10683800022B0392029162D1BDF80E306A484FEAEA
:106848009318B8F1500FC14628BF4FF0500969F3AB
:106858008F1309F10801ADF80E3002F064FC074609
:10686800002800F0A78002F08DFC03A9002308226D
:10687800384602F09AFC029924EA01060136B6006D
:10688800B14535D95FFA89F97EB3F6B2A9EB0609A5
:10689800214003315FFA89F4B146544E05EB81017A
:1068A80008234A46384602F080FC36B109F108034D
:1068B80022463146384602F078FC029B08F103086C
:1068C80003EB98030293D5F81834002B4BD1D5F875
:1068D80010445BE02A689A4204D86A60304607B0E0
:1068E800BDE8F08304EA030088E740493446D7E767
:1068F8002140033108234A4605EB8101DAE7012BE1
:1069080058D1BDF80C303848C3F38311062928BF85
:10691800062161F3891302318900ADF80C3002F0C9
:1069280002FC0746002845D002F02CFC0023082270
:1069380003A9384602F039FC0026BDF80C20C2F342
:106948008312B31C96424FEA8303BCD202994A1CB5
:1069580021400331029205EB81010422384602F0FE
:1069680024FC0136E9E7384602F010FCFFF728FF5F
:1069780080F00100C6B2B1E7E3685B7923B1236810
:1069880039461B6820469847E3681C68002CF3D1F9
:10699800384602F0FBFB06A800F8114D00F02CFE6B
:1069A800D5F818340BB9029B6B609DF8070000F00E
:1069B80047FEDBE7D5F8104454B90D4B0D480E4996
:1069C800C01AC008000440F0020000F06FF8CDE7DC
:1069D800236820469B689847E3681C68ECE7002614
:1069E8007CE700BF9C230020E8090300A8230020BF
:1069F800FC0903003C0A03003C0B03002DE9F74F98
:106A0800284C80460F46924601A9012218469B460B
:106A1800D4F80890FFF7EAFD88B3019D0026A91C69
:106A28005E4506EB010234D100211F4801F0EBFD61
:106A380080F310006A1C02EA090204EB82020004D7
:106A480005EA0903033340EA1840D06014F823200C
:106A580068F3C50204F8232034F8232066F389126A
:106A680024F8232054F82320012167F39F2244F8B7
:106A7800232061F301026FF3820204F8232094F8C3
:106A880020341BB1FFF7A6FE0028FBD103B0BDE8F8
:106A9800F08F09EA020204EB82025AF82630D3602A
:106AA8000136BDE79C230020B827002000231A46A2
:106AB800FFF7A4BF13B502AC012344F8042D224606
:106AC800FFF79CFF02B010BD07B5CDE900230223F4
:106AD8006A46FFF793FF03B05DF804FB1FB5CDE9E5
:106AE8000123069B039301AA0323FFF787FF05B041
:106AF8005DF804FB1FB5CDE90023069B0293079BB5
:106B080003936A460423FFF779FF05B05DF804FB99
:106B180030B50F49D1F81024002314463CB9C46895
:106B2800237152B9C1F810042260184630BDE468D8
:106B380025799D4206D02468F0E7D2681168216063
:106B48001060F2E701330A2BE7D14FF0FF33ECE78F
:106B58009C230020094A38B50123D2F8104482F852
:106B680020341D4604B938BDE3685D7123682046AA
:106B78005B689847E3681C68F4E700BF9C23002023
:106B8800037A052B10B50C460FD0437A23B1084A77
:106B98000849204601F0F5FD0749204601F0F1FDBE
:106BA8002046BDE8104001F0E1BD002AF8D0F3E727
:106BB800870B03007F220300A90B0300C38873B56A
:106BC80004460D4633B1144A00921449144A284623
:106BD80001F0D7FD217A05291CD0637A4BB1A08832
:106BE800FFF7D8FD0F4B104953F82020284601F035
:106BF800C8FD227A0D4BA08853F822600021FFF7C8
:106C0800ADFD0B4903463246284602B0BDE8704048
:106C180001F0B7BD02B070BD870B0300940B0300F1
:106C28008C0B0300540B03007F220300B80B0300F6
:106C3800AC0B03002DE9F04385B01F460C9D0023E3
:106C480006460C46904695F80C902B732946384614
:106C5800FFF7B4FFB8F1060F09D8DFE808F004120F
:106C6800181F283340003146284601F08AFD0022CB
:106C780029463846FFF784FF85F80C9005B0BDE833
:106C8800F08322683146284601F07BFDEFE7D4E91E
:106C980000233146284601F074FDE8E7A368009315
:106CA8003146D4E90023284601F06BFDDFE7E368AD
:106CB8000193A36800933146D4E90023284601F0E4
:106CC80060FDD4E723690293E3680193A368009306
:106CD8003146D4E90023284601F053FDC7E763692C
:106CE800039323690293E3680193A36800933146F1
:106CF800D4E90023284601F044FDB8E708292DE926
:106D0800F84F80460E4617461C4636D8002593F89D
:106D18000C901D7319461046FFF750FFDFF87CA052
:106D2800DFF87CB0AE422AD918F80520594620462B
:106D380001F027FD0135082DF4D11649DFF864B0BC
:106D4800204601F01EFD0025AE421DD918F805A009
:106D5800504609F035FD002814BF52462E225946E8
:106D6800204601F00EFD0135082DEDD10122214606
:106D78003846FFF705FF84F80C90BDE8F88F5146B8
:106D8800204601F0FEFCD5E70349204601F0F9FC56
:106D9800E9E700BF820B0300800B03007E0B0300B2
:106DA800780B0300840B03002DE9F04F3B4F89B0AB
:106DB80000263B4B1B78F5B2AB4202D809B0BDE8C0
:106DC800F08F384B196811F835000124A0F1200222
:106DD800C0F1200304FA02F924FA03F349EA03098B
:106DE800D7E9002304FA00F8CDE9042302EA0802EF
:106DF80003EA0903134301EBC50B4CD0DDE9042377
:106E080022EA080223EA0903C7E90023079103F0ED
:106E180085FA0799844611F83500A0F12002C0F1DF
:106E2800200324FA03F304FA02F21A4304FA00F3E3
:106E380000931D4B0192DDE90045D3E9002314407E
:106E48001D4022462B465FFA8CF40025CDE9044507
:106E5800049CA0F12005AC400394049CC0F12001DF
:106E680024FA01F1039C0C43049903948140029194
:106E7800DDE90245AB4208BFA2420CD19BF80110E4
:106E88004B1E59425941A1EB0C02DBF80430514228
:106E9800514103B1984701368BE700BF882800208D
:106EA8005828002090280020802800202DE9F84F3D
:106EB8000646244800F090FB002841D10123A6F1A2
:106EC8002001C6F1200203FA01FB23FA02F203FAB9
:106ED80006FA1D4BD3E900014BEA020B00EA0A0847
:106EE80001EA0B0958EA09021F4623D1304603F08C
:106EF80015FA164BB8B1D3E9000140EA0A0441EA91
:106F08000B05C3E90045D7E900234BEA0305104BFD
:106F18000C4819684AEA0204C7E900450022BDE89E
:106F2800F84F00F015BBD3E9000120EA0A0421EA72
:106F38000B05E6E720EA0A0421EA0B05C3E9004548
:106F4800BDE8F88F602800208828002080280020CD
:106F58005C280020042A2DE9F34105460C46164614
:106F68003AD903F039F8D8B11C4B1D491D601D4BA7
:106F7800DFF884801C701C4B00221E600023C1E9CE
:106F880000231A49C1E90023013CE4B20026032783
:106F9800FF2C0CD1164A1748002100F0C7FA03E06D
:106FA80002F0E2FF0028DFD002B0BDE8F08123B292
:106FB80005EBC30201A992788DF8052015F8330076
:106FC8008DF8066042468DF8047003F0E9F8013C3C
:106FD800E4B20028DCD0E7E70720E5E790280020A6
:106FE80080280020582800205C28002088280020BD
:106FF800B16D0200180C0300B56E020070B5084DA3
:10700800084E00242B789C4201D3002070BD3368C1
:10701800012113F8340003F03BF90134F2E700BF13
:1070280058280020902800201FB50021039001AAAD
:1070380044F20100CDE9011100F004F805B05DF853
:1070480004FB000010B572B6FFF784FDFFF7C2FB22
:107058000028FBD1104B114C1149E41AE408240410
:1070680044F00100FFF722FD0E4B1B68DB0700D53B
:1070780000BE0D4944F00200FFF718FDBFF34F8F23
:107088000A490B4BCA6802F4E0621343CB60BFF3B2
:107098004F8F00BFFDE700BFFC0903003C0A030057
:1070A8001C0C0300F0ED00E0280C030000ED00E0EC
:1070B8000400FA05094A537891780133DBB2994202
:1070C80008BF0023117899421FBF03705078182316
:1070D80003FB002014BF04300020704794280020D0
:1070E80073B5054602A8002400F8014D0E4600F0CD
:1070F80083FA0DF10600FFF7DDFF90B106700A4B29
:107108009DF8062045605A709DF8070000F098FA2F
:1071180024B9064B4FF48012C3F80021204602B070
:1071280070BD0424F0E700BF9428002000E100E0CF
:10713800024B4FF43C6043F001031847400C030036
:1071480038B50C4B0C4C4FF40032C3F880200125A5
:107158004FF48033C4F84833C4F808336560FFF748
:10716800E7FF064BA56000241C60FFF7E1FF044B16
:107178001C7038BD00E100E000100140B02900207B
:10718800A1290020F8B51F4B1F491B680025C1F82D
:107198004051C1F84451C1F84851C1F84C51C1F8A7
:1071A8000051C1F804514BB3D1F804451749096897
:1071B800641A24F07F442F461A68A24209D8A41AF8
:1071C80015441A7CDE691AB11F74D3E9052090476B
:1071D800AEB90F4B0F4A197813788B4205D101339A
:1071E800DBB2022B08BF0023137012780A4B43F856
:1071F80022500A4B4FF48012C3F80021F8BD3346E1
:10720800DAE700BFB429002000100140B0290020AF
:10721800AC290020AD290020A429002000E100E0CD
:107228002DE9F74F9E4A9F49137809789E4D994258
:107238003CD00133DBB2022B08BF002313709B49FB
:1072480012789B4B0F6853F822003B1823F07F43BA
:1072580000220B602B6816461446944613B942B1B7
:107268002B6006E0196881420ED902B12B60091A19
:1072780019604FF001082B68DFF83CA20093002743
:10728800BEB9DFF83CB260E0401A0C44D968C3F8D4
:1072980000C0D3F81CE031B13A1922F07F42C3E9AB
:1072A8000121DE611E4601227346D7E70026B0465B
:1072B800E1E73446F6697D4A63681268DFF804C27C
:1072C800A068991A21F07F41614500F2A580014428
:1072D8002160012222742A680023C4E90133E36192
:1072E800002A40F0A2802C60CAE75A1C9BF80210C2
:1072F800D2B291428BF8002004BF00228BF8002004
:10730800182202FB03B32A6819799C68022974D0F1
:1073180003297ED0012918D1217CB1B9DA686260CD
:107328001A69A2605A699B69A361624BE2601B7883
:10733800002BC0D06160BEE79C4200F09380994664
:10734800DB69002BF8D1002323749BF800309BF8ED
:1073580001209A42C9D12B682FB9009A934202D1D1
:10736800B8F1000F43D0002B79D0D3F800A0524DCC
:107378004E4BD5F804751C68DFF84C813E1B98F815
:10738800003026F07F4603369BB94FF48033C5F8AA
:107398004433C5F80433494B4FF400324FF0010928
:1073A800C3F880211A60C5F80090FFF7C1FE88F87D
:1073B8000090B2452CBF5444A41924F07F44C5F86A
:1073C8004045D5F80435DB1B23F07F43E41B03332A
:1073D80024F07F44A3420AD9D5F80435C5F84035CE
:1073E800FFF7A6FE354B4FF40032C3F80021314BAE
:1073F80000221A7003B0BDE8F08F13469146A0E74B
:107408001174D2690123002AFAD1002B9DD02A6079
:107418009BE700231946F6E7D31A23F07F438342FC
:1074280034BFC31A0023236053E7216813689942C5
:1074380013D8591A1160E26155E7091AD8691A4632
:1074480038B1034618688842F7D3401A18601846BE
:1074580013462160E061DC6112E71346F2E7FFF7AB
:107468006FFEC4E74C450DD1D3692B6053B90F4863
:1074780001920121CAF8081003600E4B1970FFF73A
:1074880057FE019AE1692368C9F81C1011B1086810
:1074980003440B602B689A4218BF012753E700BFCB
:1074A800AC290020AD290020B4290020B0290020F3
:1074B800A4290020A02900200010014000E100E0DC
:1074C80094280020FEFF7F00A129002008B5FFF7BF
:1074D80037FE104B00200B2218809A700E4B186054
:1074E8000E4B18700E4B18700E4B4FF48012C021C3
:1074F800C3F8802183F814131A6002F18042A2F5C0
:107508006F22C2F8080583F81113074BD2F8042537
:107518001A6008BD94280020B4290020AC29002056
:10752800AD29002000E100E0B0290020074B9B783E
:107538004BB132B128B10368187C20B959745A612B
:107548007047072070470820704700BF9428002024
:107558002DE9F7431D4FBB7805460E4690469BB371
:1075680090B304292ED9436973B3437C02A800243D
:10757800012B00F8014D0CBF8946A14600F03CF8EC
:107588000DF10600FFF796FDD0B101230370104BF3
:107598004560D3F80435C0E90498C0E902369DF87F
:1075A80006307B709DF8070000F04AF824B9094BB3
:1075B8004FF48012C3F80021204603B0BDE8F083E1
:1075C8000424EFE70724F7E70824F5E794280020C8
:1075D8000010014000E100E0064A92783AB130B16B
:1075E800426922B1002202740221FFF779BD082006
:1075F800704700BF9428002070B5EFF3108672B66C
:107608000C4A946801239CB993600B4B0B4DD3F83B
:10761800801029401160C3F88050D3F8841051605D
:107628004FF0FF32C3F88420047006B962B670BD0B
:107638000370FAE7B829002000E100E0FC06FFBD6E
:10764800084B9A6810B55AB150B9EFF3108172B669
:10765800054A1C6814605C685460986001B962B699
:1076680010BD00BFB829002000E100E070B5064E4B
:107678000546002456F824300BB1284698470134B3
:10768800042CF7D170BD00BFD0290020033080B290
:1076980040F2FD33984230B51FD8124B1A783AB9E8
:1076A8001C895D892C440444A4B2B4F5806F0AD3C4
:1076B8001A7DA2B99A8BDC8B2244024492B2B2F5AD
:1076C800806F0CD201220A801446142202FB043374
:1076D8005A8910445881002030BD0920FCE7072052
:1076E800FAE700BF042A00200B4A0C4B51881420EB
:1076F80000FB0131CB6833B90420496810700122BE
:10770800074801F0C3BA05230649137002238B808A
:10771800012200230968F3E7E8290020042A002051
:1077280020220020CC2A002007B500230549009319
:10773800054A09680548082301F012FA03B05DF804
:1077480004FB00BFCC2A0020540C03002022002098
:1077580007B50023009301460823034A034801F0B4
:10776800FFF903B05DF804FB4C0C03002022002055
:1077780013B500230C46009301460423074A084822
:1077880001F0EEF938B9074B142202FB0434012347
:10779800237402B010BD0E20FBE700BF480C0300A5
:1077A80020220020042A002037B50A480A4B4268E4
:1077B8009C88196853880325033305709BB2002001
:1077C80000909B0001EB8401044801F0C9F903B063
:1077D80030BD00BFE8290020CC2A0020202200204C
:1077E80010B50146044800F042FE1C220446002160
:1077F80009F04AF8204610BDB82A00204388033310
:1078080000EB8303994209D382884FF6FF739A42AB
:1078180006D00088B0FA80F040097047022070470F
:10782800012070472DE9F8430223DFF860800B80C0
:107838000D46174600F5805600F108044FF001097F
:10784800B4420FD2236801330CD031462046FFF7EB
:10785800D5FF48B10FB187F8009002280BD14FF43B
:1078680080632B80BDE8F883A368D8F80020934292
:1078780001D9C8F800302B886288033313442B8061
:107888006388033304EB8304DAE700BFFC29002094
:10789800144A142303FB002070B50B6844680D4696
:1078A80004F580569BB15C88033403EB8404B4422E
:1078B8000BD22368013308D031462046FFF79EFFDC
:1078C800012809D005D30228F1D1002003E00834AB
:1078D800EDE72C60012070BD6388033304EB83045B
:1078E800E5E700BF042A0020436873B505460C4647
:1078F8006BB3254AD1688B4229D31269934226D8A3
:1079080013F0030223D121490089098988421ED135
:107918002868996888421AD11D494868834203D962
:1079280000F5805083420ED38A6993420DD902F53F
:107938008052934209D2012323800020B0FA80F0BC
:10794800400902B070BD1346F6E70A20F6E70023A7
:1079580023801E462388012B01D90020F1E70196D8
:1079680001A92088FFF794FF18B9238801332380E1
:10797800F0E7019B2A6899689142F1D16B60034B4B
:107988001B892B81DDE700BF20220020E829002089
:10799800042A00202DE9F8431C461E4B1B78064696
:1079A8000F461546002B30D0002A30D07CB3DFF8C4
:1079B8006C804FF01409A388012B01D90A201AE022
:1079C80009FB03F318F80330BBB1A3880133A38084
:1079D800F1E723681EB19988328891420DD11FB111
:1079E80019883A88914208D19A68C5E900230A4B58
:1079F8001B892B810020BDE8F8832146A088FFF76A
:107A080047FF0028E5D12060DFE70220F3E70520E3
:107A1800F1E700BFE0290020E8290020042A00201F
:107A280008B5074B191D5888FFF732FF18B1BDE894
:107A38000840FFF7B9BEBDE80840FFF755BE00BFD4
:107A4800E82900202DE9F04FA04FDFF8A49289B073
:107A58000646B8463B6823B949469D4800F041FDB3
:107A68003860D8F8005029784B1E052B00F2128197
:107A7800DFE813F0060076007600060106015D01D6
:107A880026B1944B00225A60012424E02B79032B61
:107A98001DD8DFE803F01502424D8F490B78022B01
:107AA800084631D00B7D022B4FF001032ED1142252
:107AB8005343C2180020C8545068FFF749FE03E03A
:107AC80001232B71FFF730FE002800F0D380814B93
:107AD80000225A600E241422002103A808F0D4FEC4
:107AE80041F61D539C4208BF0024D8F80030049486
:107AF8001A78023A042A00F2D381DFE812F0B401BE
:107B0800C001E301EB01F2010023D0E7714A1370D1
:107B18000023536041F61D54DDE770497048002387
:107B280002222B718A800122096801F0AFF8CBE7A5
:107B38006A4C00262E712068674DFFF709FE694BD5
:107B4800D4F800C05A8814235343EA18EE545168F5
:107B58002160A188C2F804C011810222A280B3E783
:107B6800B5F814A0AA7DDFF870B1AEB1022AEB888F
:107B780006D9142101FB0AB1DA1C088902440A81DA
:107B8800142202FB0ABAC3F57F43BAF80A20FD3370
:107B98001344AAF80A3077E7142303FB0AB31889B9
:107BA8005C6804EB8004062A05D8DFE802F0264C5E
:107BB80034421C5866000F24AA7DEB88022A06D995
:107BC800142101FB0AB1DA1C088902440A81142233
:107BD80002FB0ABAC3F57F43BAF80A20FD331344FF
:107BE800AAF80A3077E74048404900234360AB6968
:107BF8000360FFF779FE00285AD00223AB750023F3
:107C080000930423EA182146354800F0A9FF00280C
:107C180030D00E24D0E72B69002B0CBF012303239F
:107C2800AB750023009305F10C02042304F108014D
:107C3800EAE70123AB750022EB8800929B002A69D2
:107C480004F10C01E0E7032914BF06230523AB75F3
:107C580000230093042305F10802E118D4E7062362
:107C6800AB75224B1988204B5868FFF781FD0446F5
:107C78000028A1D109B0BDE8F08F41F61D549BE75B
:107C8800002E7FF401AF2B79012B33D004D3022BC4
:107C98003FF440AF0F241EE702232B710DF10A01B8
:107CA800EB68039303A8CDE90466FFF71DFE08B946
:107CB8000A2410E70498BDF80A108388EB8003882B
:107CC8002B81FFF755FD044627E000BF002A00205E
:107CD800B82A0020E0290020042A0020CC2A00200D
:107CE80020220020E8290020C4290020D82A0020CA
:107CF800F8290020DFF808A203AA53463146A81D38
:107D0800FFF748FE044660B9BAF804100498FFF774
:107D18002FFD04460A2C3FF4FDAE002C7FF4DBAEA9
:107D2800A8E708223146504608F0AEFDF2E7002EDB
:107D38007FF4AAAE6D4B1A7BB2B11E731A78013A62
:107D4800062AA7D801A151F822F000BFFB7D020046
:107D5800217E02003F7E0200457E02009D7C0200DB
:107D68004B7E0200617E02001A78072AE6D801A13C
:107D780051F822F09D7D0200457D0200457D0200FC
:107D8800C37D0200D77D0200F77D0200F77D020067
:107D9800BF7D02001A89564901321A8100225A8091
:107DA8001A730A78B2FA82F252099A720A7DB2FA02
:107DB80082F25209DA72012207E04E4958688A882D
:107DC8004088033202448A8002221A70B6E7484C7F
:107DD8005A884849142505FB0242086854685060CF
:107DE8008888108102228A800C600622EDE707222B
:107DF800EBE79A7A32B9DA7A8AB900221A705A808D
:107E08005A6087E63A4900229A72CA68002AF2D173
:107E1800097C0029EFD05A80FFF702FE53E70022C1
:107E2800DA72334A116A0029E7D192F82420002A2D
:107E3800E3D00122EFE7FFF7B7FC44E7FFF754FC74
:107E480041E706221A702A4A5B88142101FB0323A2
:107E58005868FFF77DFC36E707221A7000225A603F
:107E6800FFF762FC2FE701228DF80C201A89ADF884
:107E780018209A88DB68ADF81A20059310E00222D2
:107E88008DF80C201A89ADF818209A88ADF81A20B8
:107E9800DA689B7D05929A1F534253418DF81C3036
:107EA80003A8FFF7E3FB002649461348C8F800601B
:107EB80000F042FB0121114800F0F1FB00287FF49B
:107EC800C9ADD7E603228DF80C20DA88ADF8182062
:107ED8001A89CFE70422DB888DF80C20ADF818301A
:107EE800DEE705238DF80C30DAE700BFE82900202B
:107EF800042A0020CC2A0020B82A0020C82A002002
:107F0800DC2A00204068FFF79DBD000008B501216C
:107F1800044800F0AEFB18B9BDE80840FFF792BD71
:107F280008BD00BFC82A00202DE9F3419846354B0B
:107F38001B7806460D46002B5BD000295BD00988CC
:107F48004FF6FF73994258D06B88002B55D06B6859
:107F58009B0754D14AB92F890DF102013846FFF722
:107F680095FB30B102B0BDE8F08113885788ADF8B1
:107F7800023001A8FFF734FC044658B9BDF80230B6
:107F8800214A142101FB032358890338C01B588157
:107F98000820E7E700238375BDF8023083826B6809
:107FA800036180F800800121184800F06DFB2B88E0
:107FB8002381B8F1030F6B88A38004BF0423A37542
:107FC8004FF0000508BF3368E06008BFA361E78091
:107FD800658101A90E4800F074FA36B1E368336090
:107FE8000C4B75601B89B5723381FFF78FFF00203A
:107FF800B8E70220B6E70520B4E70420B2E703207B
:10800800B0E700BFE0290020042A0020FC29002056
:10801800B82A0020E829002008B5084B1A68042A65
:1080280009D01968064A42F821000121184600F0D3
:108038002BFB002008BD0C20FCE700BFD42A002041
:10804800D02900202DE9F04F89B01422002103A87F
:1080580008F01AFC7B4A137803F0FF010091904660
:108068003BB103A8FFF702FB0026304609B0BDE884
:10807800F08F101D00F01EFB05460028F4D14FF0CC
:1080880010234FF080525B6911695269DFF8DCA157
:10809800581C08BF02FB01F3CAF810300022A3F5F0
:1080A80040536949CAF80C30504600F025FD064691
:1080B8000028DAD11C238C226449654800F0A2F913
:1080C8003746B3464FF003093446CDF804A0019B68
:1080D800D9680BEB010002465BF80110002835D087
:1080E8005C4B994232D141685B4B994215D00133C0
:1080F80099422BD1009BDFF86CA1002B59D10022AB
:108108005649CAF80000FFF78DFBBAF80420022A86
:1081180014BF0822042217433AE051494FF0140CC7
:108128000CFB04FC01EB0C024FF0000E01F80CE014
:1081380050600CF110020CF1080C0A446144FFF77E
:1081480071FB47F002070134A4B221E000F5805C1E
:108158001168013167D104329445F9D1414A116857
:1081680029B9022101231060918000930EE01422A6
:1081780062433B4B4FF0020E991803F802E03A4A6B
:10818800486054800134A1F808E0A4B247F0010720
:108198000BF5805BBBF5405F99D1B9F1010F88BF42
:1081A8003D46EDB2022D02D0062D12D0DDB90B26C8
:1081B8005BE72B4B1422624399184FF0020C03F82B
:1081C80002C00134DAF800204A60A1F808C0A4B25D
:1081D80095E7012388F8003003A80023C8F8043085
:1081E800FFF744FA41E702A8FFF7FAFAC8B10123FA
:1081F800013D03700A2D09D8DFE805F006080608D6
:10820800070807080F110F000023037102A910487F
:1082180000F057F9FFF77AFE27E70323F5E7022373
:10822800F3E7082621E70E491422624301EB020C0A
:1082380009F1FF39CCF8040003201FFA89F98854A2
:1082480081E700BFE0290020480E03002C2A002007
:10825800B82A0020DEC0ADDEFE011EF1D02A0020C3
:10826800042A0020CC2A0020E8290020202200200F
:1082780073B50D460446C8B1C1B10DF10601FFF74B
:1082880033FBA8B10B4BBDF806006668142202FB4D
:10829800003001210C3000F0F7F963682E600C33D0
:1082A8006B600123A372002002B070BD0520FBE7BC
:1082B8000A20F9E7042A002013B50446A8B10DF1F5
:1082C8000601FFF711FB90B10B4ABDF806301421E7
:1082D80001FB0323DA6862B1A27A52B1DA6800209E
:1082E800013ADA60A07202B010BD0520FBE70A204F
:1082F800F9E70620F7E700BF042A0020022300223E
:10830800FFF712BE18B103230022FFF70DBE0520A8
:1083180070470000104B1B7813B50446ABB14FF6FD
:10832800FF73984213D001A8FFF75AFA88B10523C2
:10833800037001230371C48001A9084800F0C1F843
:10834800FFF7E4FD002002B010BD0220FBE7042087
:10835800F9E70820F7E700BFE0290020B82A002045
:108368000E4B1B7807B5A3B101A8FFF739FA90B1F6
:108378000623037001A90A4800F0A3F8094B1A78EC
:108388000AB101221A73FFF7C1FD002003B05DF89E
:1083980004FB0220FAE70820F8E700BFE0290020E4
:1083A800B82A0020E829002007B5ADF8060002A881
:1083B80020F8041D01460DF10600FFF7EBFA03B0A3
:1083C8005DF804FB13B502AC134624F8020D0A4607
:1083D80000202146FFF7DEFA02B010BD13B502AC4B
:1083E800134624F8020D0A4620460021FFF7D2FA68
:1083F80002B010BD20B119B103680B6000207047AE
:108408000520704710B561B1B2FBF3F403FB1424E7
:10841800A4B244B9C0E9001484608281C3812046B3
:1084280010BD0E20FCE70920FAE782B050E8022FC1
:10843800C188B2EB324F4FF0000317BF92B241EA46
:10844800014142EA014104E04268B2EB324F08BF01
:10845800012340E80212002AE8D18DF807309DF880
:108468000730002B0CBF1120002002B0704737B531
:1084780050E8013F9DB2C48925448489A54228BF9C
:108488002D1B0489A54202BFBFF32F8F002207E0EE
:10849800C5EA030540E80154002CE9D14FF0010278
:1084A8008DF803200193019B9DF803200B6002F0D7
:1084B800FF0322B10B880068184403B030BD18468A
:1084C800FBE70A884B889A4209D150E8012FC2EA93
:1084D800024240E80123002BF7D101207047002019
:1084E800704737B550E8023F1FFAA3F5C488A54284
:1084F80002BFBFF32F8F00220DE0C4892544848971
:10850800A54228BF2D1BC3EA054540E80254002CAC
:10851800E8D14FF001028DF803200193019B9DF8EB
:1085280003200B6002F0FF0322B14B880068184457
:1085380003B030BD1846FBE70A884B889A4209D138
:1085480050E8022FC2EA224240E80223002BF7D16A
:10855800012070470020704701F01F024B090121DC
:10856800914000EB830000F063B84B0910B501F0AF
:108578001F040121A14000EB830000F04EF8E04009
:1085880000F0010010BD01F01F0301229A404B09C1
:1085980000EB8300D14300F061B84B0901F01F01E3
:1085A80050F82300C84000F0010070472DE9F0475B
:1085B8004E1E760980460F460136002558F825409C
:1085C80008EB850AE44394FAA4F4B4FA84F44FEA75
:1085D8004519202C06D10135AE42EFD83C4620463D
:1085E800BDE8F0874C44A742F5D921464046FFF73D
:1085F800BCFF0028F3D0DAF80040E44394FAA4F46E
:10860800B4FA84F4E5E750E8002F0B4640E8003C54
:108618009CF0000FF7D11046704750E8002F42EA4F
:10862800010340E8003C9CF0000FF6D1104670476B
:1086380050E8003F43EA010240E8002C9CF0000F9C
:10864800F6D11046704750E8002F02EA010340E8CF
:10865800003C9CF0000FF6D11046704750E8003FF0
:1086680003EA010240E8002C9CF0000FF6D1104606
:10867800704750E8002F02EB010340E8003C9CF0F3
:10868800000FF6D11046704750E8003F03EB010297
:1086980040E8002C9CF0000FF6D11046704750E8D7
:1086A800003FA3EB010240E8002C9CF0000FF6D13C
:1086B800104670470121FFF7B0BF0121FFF7B8BF8F
:1086C8000021FFF7C0BF10B590B1D0E901230168C0
:1086D8009B1ADBB20A60013BDBB2FF2B026802D1B6
:1086E8000020107110BD11684C1C14600B70F2E76B
:1086F8000E20F7E737B5054602A8002400F8014D1B
:10870800FEF77AFF2A686B68116899420ED9481EED
:10871800106011F8014CEB68298A01FB0434AB683E
:1087280011791B1ADBB2994238BF13719DF8070003
:10873800FEF786FF204603B030BD37B5054602A8D0
:10874800002300F8013D0C46FEF756FF2A6813681F
:10875800591C1160E968641A298AB4FBF1F41C7089
:108768009DF80700FEF76CFF03B030BD826810B5B6
:1087780004462AB143690168006998470023A36049
:1087880010BD0EB403B5039929B102AA04AB42F88F
:10879800043D00F06BF802B05DF804EB03B07047DD
:1087A800826830B40468551C8560A154D0E9013250
:1087B8009A4202D330BCFFF7D9BF30BC70470000E3
:1087C8002DE9F84F9946DDE90A431746824688465F
:1087D8000A460126BA420FD24E4538BF4E4613F01C
:1087E800010B01D164B900240125B9F1010F1AD98F
:1087F80009F1FF397D43F8E7B2FBF7F20136E9E703
:108808009B070ED5B9F1000F0CBF30252025A642D5
:10881800EAD2013C29465046FFF7C2FF002CF6D1A8
:10882800E1E72025F3E7B8FBF5F39F42E2D9DFF84B
:108838003890B8FBF5F3504619F8031005FB138878
:10884800FFF7AEFFB5FBF7F5002DF2D1BBF1000F36
:1088580002D00CB1A64201D3BDE8F88F20215046C2
:10886800013CFFF79DFFF4E75C0C03002DE9F74F8F
:10887800054690460E46002900F03A8116F8011B7D
:10888800002958D0252940F0D180002702E047F080
:1088980001071646324612F8013B2D2BF7D0302B34
:1088A80004D02B2B05D147F00407F2E747F0020765
:1088B800EFE700242A2B06F101021BD1D8F800307B
:1088C800191D1B68C8F800101C44164633782E2B57
:1088D8001CD101364FF0000A314611F8012BA2F1E4
:1088E8003000092814D80A2303FB0A23A3F1300A0D
:1088F8000E46F1E712F8013CA3F130010929E5D849
:108908000A2101FB0434303C1646D3E74FF0000A35
:10891800324612F8011B01F0FB0068281646F8D011
:10892800692916D054D8582970D00ED825297DD059
:108938003378002BA2D12B7B002B00F0D98028465E
:1089480003B0BDE8F04FFFF711BF632968D0642971
:10895800EED1D8F80020D2F80090111D89EAE9720A
:10896800C8F80010A2EBE9724FF0010B092A61DC8C
:10897800D34538BFD3462CB1B9F1000F01DB7907D5
:1089880000D5013CBA0702D5BAF1000F04D0FB07A5
:1089980002D4002C54D10024B9F1000F58DAC9F1DF
:1089A80000092D212846FFF7FBFE07F00302022AE3
:1089B80005D1BAF1000F02D1002C4DD10024CDE928
:1089C800004753460A2249462846FFF7F9FEAFE713
:1089D800732954D016D87029AAD1D8F800301A1D96
:1089E800C8F80020302128461C68FFF7D9FE7821F6
:1089F8002846FFF7D5FE00220823CDE9003221469C
:108A08001022E1E775292FD0782991D1D8F80010E4
:108A18000A1DC8F80020CDE90047534610222CE073
:108A2800D8F800301A1D1978C8F800202846FFF732
:108A3800B7FE7DE70A230BF1010B92FBF3F295E7F2
:108A4800A345A9D220212846013CFFF7A9FEA0E7AB
:108A58007807AAD52B21A5E7A345B0D2302128460F
:108A6800013CFFF79DFEA7E7D8F80010CDE90047C5
:108A78000A1DC8F8002053460A220968A4E7D8F856
:108A880000301A1DC8F80020F907D3F8009012D555
:108A98004F46A7EB090B17F8011B41B9A345BFF4D3
:108AA80047AF20212846013CFFF77AFEF6E7284623
:108AB800FFF776FEEDE7B9F1000F17D0484607F04B
:108AC80016FF0746BC4200D954B909F1FF3919F815
:108AD800011F00293FF42CAF2846FFF761FEF6E797
:108AE80020212846013CFFF75BFEEBE74F46E9E70C
:108AF80003B0BDE8F08F000007B50B4688B9124BEC
:108B08001248134AC01A0E23C0080093114B0004E0
:108B1800114940F00100FDF7E1FF0E2003B05DF8B8
:108B280004FB4BB9084B09480C4AC01AC0080E236D
:108B380000930004074BEBE703601B68114603B082
:108B48005DF804EB184700BFFC0903005C0A03004A
:108B5800190D03006C0C03001E0D0300950D030096
:108B68002DE9F34188B93D4B3D483E4AC01AC0083B
:108B78000E243D4B009400043C4940F00100FDF7F1
:108B8800ADFF204602B0BDE8F0814AB9334B344806
:108B9800374AC01AC0080E2400040094324BEBE791
:108BA800D0F800C0BCF1000F09D12C4B2C48314A39
:108BB800C01AC0080824000400942B4BDCE74BB90A
:108BC800264B27482C4AC01AC008092400040094E0
:108BD800254BD1E74768D7F80480B3FBF8F708FBC3
:108BE80017374FB11D4B1E48244AC01AC008092424
:108BF800000400941C4BBFE78F0709D0174B184897
:108C08001F4AC01AC008102400040094164BB3E78A
:108C180012F0030F09D0114B11481A4AC01AC008A4
:108C2800102400040094104BA6E7C768B9420BD380
:108C38004C1E05691C44AC4206D8DCF80C40A4461E
:108C480002B0BDE8F0416047044B05480E4AC01A1F
:108C5800C008102400040094034B8DE7FC090300AE
:108C68005C0A0300190D03007E0C03001E0D0300AF
:108C78009B0D03008F0D03004E0D0300A10D030093
:108C8800CB0D0300E30D0300060E0300F7B580B912
:108C98002A4B2B482B4AC01AC0080E242A4B009492
:108CA80000042A4940F00100FDF718FF204603B0F0
:108CB800F0BDD0F800C0BCF1000F09D11F4B20480F
:108CC800234AC01AC0080824000400941E4BE8E791
:108CD8004AB91A4B1A481F4AC01AC0080924000486
:108CE8000094194BDDE74768D7F800E00EF1FF372D
:108CF8000F4209D0114B1248174AC01AC008102455
:108D080000040094104BCCE7C768B9420CD34C1E42
:108D180005690EFB0244AC4206D8DCF81040A446B4
:108D280003B0BDE8F0406047044B05480B4AC01A41
:108D3800C008102400040094034BB2E7FC090300A8
:108D48005C0A0300190D0300910C03001E0D0300BB
:108D58008F0D03004E0D0300A40C0300CA0C030082
:108D680029DF704728DF704770B503689D6886B0B3
:108D780004460E466DB114220021684607F084FDB2
:108D8800A3680593237901962BB1012B0DD0684672
:108D9800A84706B070BD01238DF8003023690293FF
:108DA800E368039363690493F1E702238DF80030C5
:108DB800E3681B030293F5E70846704700207047F5
:108DC800024B187A003018BF01207047802B002012
:108DD800034B187A0122B0FA80F05A7440097047A0
:108DE800802B002008B510461A4607F024FD002005
:108DF80008BD000008B514220021044807F044FD0E
:108E08000348FFF712FB002008BD00BF802B00209D
:108E1800702B002010B5094C094B43602046FFF722
:108E280049FC40B907F0A6FA1C2320748C22054996
:108E38000548FFF7E7FA002010BD00BF802B00208F
:108E48003C0E0300E42A0020702B002070B5244D4E
:108E5800244E2B7A2C463BB923492448FFF741FB83
:108E6800306008B9686070BD0223237233681A79CC
:108E780072B1012A24D018460321FFF775FF002399
:108E88002372636018491948BDE87040FFF754BB66
:108E9800D3E90520121AB2F5805F28BF4FF480523B
:108EA800D3E903159208012A014438BF0122284456
:108EB800FFF756FF50B11128DDD101232372D2E705
:108EC800D3E903021044FFF74DFFF3E7237C002B9F
:108ED800C9D10146BDE87040022000F009B800BFC2
:108EE800802B0020982B0020942B0020702B002032
:108EF80038B5831E012B45D8234C237A002B41D04B
:108F0800022B09D1032830D0204B1B680022E260D5
:108F18001A793AB1012A22D0637C7BBBBDE838407C
:108F2800FFF794BFD3E905128D1AB5F5805F94BF9A
:108F3800521902F580529A619142EDD102284FF000
:108F4800000308BF19462372104B18BF0D2118687B
:108F5800FFF70AFF0E490F48FFF7EEFADCE71A6938
:108F680001321A615B699A42E7E7E3680133082B2B
:108F780001D8E360D0E70023E360DFE7BDE83840CD
:108F880007F0E8B938BD00BF802B0020982B0020DF
:108F9800942B0020702B002000F0FD03012B08D13A
:108FA800044B00225A74421E504250411874FFF775
:108FB8004DBF7047802B002010B5064C201DFFF7D1
:108FC80079FB28B9637C1BB9BDE81040FFF73EBFA9
:108FD80010BD00BF802B00202DE9F34180460D46CF
:108FE8000F4801A916461F46FFF741FA0446A8B1E3
:108FF8001C22002107F048FC2D0B0123237101A935
:10900800C4F80080A760E56066610548FFF759FA73
:10901800FFF7D2FF002002B0BDE8F0810420FAE794
:10902800702B00202DE9F74381468846104801A996
:1090380017461E46FFF71BFA0446B0B11C22002152
:1090480007F022FC00250A9BA36001A92571C4F83A
:109058000090C4E9037866610548FFF732FAFFF724
:10906800ABFF284603B0BDE8F0830420FAE700BF51
:10907800702B00202DE9F047B0F806904479D2F81B
:1090880000A09DF8208009FB04F4043C06460AEB86
:109098000300A0420F4688BFA4EB030A191DC2F8BB
:1090A80000A0B1FBF9F509FB15114DB9A9EB0104B5
:1090B800544528BF5446BAF1000F04D1BDE8F087E3
:1090C8003668013DF1E704317B1970182246B8F182
:1090D800000F0ED001461846AAEB040A07F0ABFBB6
:1090E800D145254436684C464FF0000128BF544608
:1090F800E1E71946F0E7FFF7E6BAF8B54679014621
:10910800721E0546002393422D6803D30024A6420D
:1091180002D8F8BD0133F6E70F682846FFF70DFBC4
:1091280001343946F3E72DE9F843068ACD1C074692
:10913800FFF7E0FA043E35440446B5FBF6F5F0B116
:109148004FF48073EDB28380C680013D076081468D
:109158004FF00008A84512D23846FFF7CBFA06466A
:1091680048B163790133637108F10108C9F8000057
:1091780007608146EEE72046FFF7BFFF34462046EA
:10918800BDE8F88301210430FFF77EBA10B501214C
:1091980004460430FFF783FA10F0FF0F04D120468D
:1091A800BDE81040FFF7A9BF10BD1FB504AC44F8D7
:1091B800042D002200922246FFF75CFF04B010BD88
:1091C8001FB504AC44F8042D012200922246FFF793
:1091D80051FF04B010BD41DF70470000064B10B5C9
:1091E80000241C70054B1C60BFF35F8F04490548C1
:1091F80000F039F8204610BDA42B0020A82B002031
:10920800680E03009C2B002007B502A8002300F875
:10921800013DFEF7F1F9F1EE103A23F09F03E1EE7C
:10922800103ABFF35F8F0A4B4022C3F884219DF8A0
:109238000700FEF705FA07F09DF820B1FFF7CBFF0E
:1092480003B05DF804FB20BF40BF20BFF8E700BFB4
:1092580000E100E0836800225A609A60C3E90422B2
:10926800DA601A6070470B684A684360934208BF27
:109278000023016008BF43607047436843B1026838
:10928800916852680B449342436004BF00234360D3
:10929800704700000D4930B5A1F59472022591423E
:1092A80001D800200EE08B1ADB1093FBF5F302EBDC
:1092B800C30452F83330834205D802D204F10802BD
:1092C800EDE7606830BD2146E9E700BFB80F03004D
:1092D80008B5FFF7DFFF024B002808BF184608BD96
:1092E8007D0E03002DE9F8430468054694F8200034
:1092F80001F062FE04F11807FF264FF0FF394FF026
:109308000008207AFF2802D001F056FE2672607A03
:10931800FF2802D001F050FE66722068431C03D07B
:1093280000F0C6FEC4F8009084F80B800C34BC42F0
:10933800E7D16868BDE8F84301F068BF2DE9F0415E
:10934800134DDFF850800E460024012705EB410538
:109358002B5D5BB12B5D013BDBB22B552B5D93B9CC
:1093680058F826301B683046DB6998474CB167B11E
:10937800084B53F8263002215868BDE8F04101F047
:10938800B1BF0124E4E70027F0E7BDE8F08100BFA2
:10939800C52B0020AC2B002040680C4902798B5C5F
:1093A800DBB2FF2B0DD0FE2B0DD0006803F5A873A0
:1093B80050F82330064850F82200984203D1FF2382
:1093C8008B54002070470120704700BFC02B00203D
:1093D800D02B002003682DE9F74F904693F8212001
:1093E800022A05460F4640F099800C244C431A196E
:1093F8005268904509D1DB691BB9002003B0BDE86C
:10940800F08F426810799847F7E7FFF7C5FF834662
:10941800002840F085806B68DFF810911B79FE22E8
:1094280009F803202E6896F8200001F01FFECA46AE
:10943800B8F1000F1FD13444607A01F017FE207A8A
:1094480001F0FCFD6B681B79FF2209F803200C234F
:1094580003FB07662B68C6F80480DB69002BCCD0B9
:109468006B681A792F4B03EB42030221D9556868C0
:1094780001F025FFC1E7B169884507D334441FFAD5
:1094880081F8207A01F0F2FD607AD9E707EB470905
:109498004FEA890906EB090368685A68914238D08F
:1094A800002A36D0904534D25B46032101F0D8FE1D
:1094B8006B6896F820B01B6856F80900344403F529
:1094C800A6730193A37A0BB300F044FE02460199F8
:1094D800584601F093FD96F8200001F0AFFD6B6847
:1094E800114A1B790AF8037042F823800C2404FB04
:1094F8000764002342463946686801F0B1FE207AC5
:1095080001F09CFD607A01F099FDA0E700F014FEDF
:10951800DCE70379FF220AF80320E7E708206DE774
:1095280011206BE7C52B0020D02B0020C02B00207A
:1095380003681B8B5A436423B2FBF3F292B2FFF722
:1095480049BF00002DE9F04F89B0044603928946CF
:10955800002900F02081066896F82130002B40F0A1
:109568001C8101F09BFD08B1852821D100F034FD54
:1095780000B38B4B1B6803F0F003302B20D1002382
:10958800884A00211370FF234FF0FF3286F82030FD
:10959800F172337273723260F17532757375F260FD
:1095A80006F1200001F0D4FC60B12046FFF79AFED6
:1095B800042519E000F0D8FC0028DAD0032513E0D0
:1095C8000123DDE707464FF00C0B59F82720FBB2C3
:1095D8000293531C00F08580256895F8211049B145
:1095E80008252046FFF77EFE284609B0BDE8F08F23
:1095F8000127EAE709EB07030BFB07F893F808A034
:10960800049205EB08031046596083F80AA04FF04E
:1096180003038DF81830BAFA8AF35B098DF819300C
:1096280006A901238DF81A30059300F0DFFCB0B9C4
:10963800049A059B45F8082093404FF0A042BAF1E0
:10964800000F00F09A80C2F80C350BFB07F303F10A
:1096580008002844049301F07BFC049B08B104250E
:10966800BFE703F109002844049301F071FC049B4F
:109678000028F4D12B440493187A01F0F7FC049BDA
:10968800587A01F0F3FC55F80800BAF1000F77D0CA
:1096980000F060FD824655F8080000F04DFD636853
:1096A8000BFB07551B6807F1500103EB810180464E
:1096B8005246287A01F0A2FC6368687A1968424623
:1096C80001F5A47101F09AFC0123EB726368364A34
:1096D8001B79029902EB430320460022DA55FFF773
:1096E80079FE002F84D0D9F810200023B2F5805FCE
:1096F80001D3092B4CD12B4A127812B1002B08BF89
:1097080001238DF8183000238DF819308DF81A30A0
:109718006068264A07238DF81B300379079306A94A
:1097280001F0ECFC054600287FF45BAF6068D9F8CF
:1097380010700368D3F810253F01D2B2D7404FF01C
:109748000108B76101F088FD04233A4602216068E8
:10975800CDF8008001F09DFD0221606801F0C2FD96
:10976800039BF3616368124A1B7986F8218042F8EB
:109778002340104AFF21D15436E7C2F8083564E780
:1097880000F0DAFC824655F8080000F0E3FC86E7B2
:1097980052080133AAE70B2526E7082524E700BF6E
:1097A800E80F00F0E42B0020C52B002045930200B1
:1097B800AC2B0020C02B00202DE9F0470768DFF80C
:1097C8006890002605463C46B0464FF00C0A6B6888
:1097D8001B7909EB430303F80680E37A73B12B681E
:1097E80020680AFB0633997AB1FA81F1490900F039
:1097F800BFFC206800F08EFCC4F804800C3476B1FD
:109808006868084A0379FF21D15401F025FD68688A
:1098180001F0E2FC022387F82130BDE8F087012639
:10982800D5E700BFC02B0020C52B00200C4B1B78B0
:10983800062B10D10B4B1B681A070CD10A4B186862
:1098480000F0F003302B08D000F0E000A0F1400356
:10985800584258417047002070470120704700BFA8
:10986800E00F00F0E40F00F0E80F00F0094B1B7860
:10987800062B0CD1084B1B681A0708D1074B186830
:1098880000F0F000A0F13003584258417047002022
:10989800704700BFE00F00F0E40F00F0E80F00F0A1
:1098A80008B5FFF7C3FF28B17D4B7E4A1B68C3F399
:1098B80004231360FFF7DAFF10B17B4B7B4A1A6071
:1098C800FFF7B4FF28B17A4B7A4A1B68C3F34233D7
:1098D8001360FFF7CBFF20B1774AD36823F080737A
:1098E800D360FFF7A3FF40B14FF080430022C3F8D5
:1098F8000C21C3F81021C3F83825FFF7B7FF10B1C2
:109908006E4B03221A60FFF7B1FF40B16C4B052282
:109918001A6001229A6700229A603F225A60694BB6
:109928001B78062B50D1684B1B6819074CD1674B25
:109938001B6803F0F003502B46D14FF08052644B64
:10994800D2F80414C3F82015D2F80814C3F8241563
:10995800D2F80C14C3F82815D2F81014C3F82C1533
:10996800D2F81414C3F83015D2F81814C3F8341503
:10997800D2F81C14C3F84015D2F82014C3F84415C3
:10998800D2F82414C3F84815D2F82814C3F84C1593
:10999800D2F82C14C3F85015D2F83014C3F8541563
:1099A800D2F83414C3F86015D2F83814C3F8641523
:1099B800D2F83C14C3F86815D2F84014C3F86C15F3
:1099C800D2F84424C3F87025FFF730FF28B1414B83
:1099D800414A1B6803F04F031360FFF727FF48B1A4
:1099E8004FF08043D3F80024D20744BF6FF0010240
:1099F800C3F80024394B1B68062B08D1384B1B6869
:109A0800062B01BF374A136843F480631360364A54
:109A1800D2F8883043F47003C2F88830BFF34F8F10
:109A2800BFF36F8F4FF01023D3F80022002A03DB17
:109A3800D3F80432002B2FDA2C4B0122C3F804256B
:109A4800D3F80024002AFBD04FF010221521C2F8C9
:109A58000012D3F80024002AFBD04FF0102315225F
:109A6800C3F80422214B1A46D3F800140029FBD06E
:109A78000021C3F80415D2F80034002BFBD0BFF343
:109A88004F8F19491A4BCA6802F4E0621343CB603E
:109A9800BFF34F8F00BFFDE7164B174A1A6008BD8A
:109AA800240300104035014074C007400DF0ADBAE2
:109AB800440200103C050040F0ED00E0A005004025
:109AC80010560040E00F00F0E40F00F0E80F00F03F
:109AD80000C0004058020010E40E004030010010A1
:109AE800340100103C17004000ED00E000E00140A8
:109AF8000400FA05502200200090D003054A4FF0D8
:109B0800A043105CD3F8043523FA00F0C04300F0FA
:109B18000100704776130300044B1A5C012393403D
:109B28004FF0A042C2F80C35704700BF761303000F
:109B3800044B1A5C012393404FF0A042C2F8083549
:109B4800704700BF7613030008B50020FFF7F0FF49
:109B58000120FFF7EDFF0220FFF7EAFF0320BDE831
:109B68000840FFF7E5BF08B50020FFF7D5FF012043
:109B7800FFF7D2FF0220FFF7CFFF0320BDE8084020
:109B8800FFF7CABF074A4FF0A041105CD1F804356F
:109B98000122824022EA03001340C1F80805C1F8F7
:109BA8000C35704776130300054A4FF0A043105C4C
:109BB800D3F8103523FA00F0C04300F001007047D5
:109BC800721303000D2809D00E2809D00F2809D0D8
:109BD80010280CBF03204FF0FF307047002070475B
:109BE8000120704702207047014B185C704700BF86
:109BF80072130300C20708B501460CD54FF0A04305
:109C08000322C3F84427C3F84827C3F84C27C3F8EE
:109C18005027FFF799FF8B070AD54FF0A0430C2276
:109C2800C3F83427C3F83827C3F83C27C3F84027BC
:109C380008BD000038B5084C04F1080305460028A3
:109C480018BF1C4623682BB11A6822605B68284637
:109C58009847F7E738BD00BFF02B002020B9054B27
:109C680001225A70FFF7E6BF012802D1014A90701D
:109C7800F8E77047E82B002020B9034B01225A70FF
:109C8800FFF7D8BF704700BFE82B002038B50B4C52
:109C9800237883B90A486360A3602361E36000F016
:109CA800D1F8054606F066FB08B900F0D9F801239B
:109CB8002370284638BD8525FBE700BFE82B002028
:109CC800659C020037B502A80023094C00F8013D45
:109CD800FDF792FCE368013BE360E56815B900F025
:109CE800D3F8A5709DF80700FDF7AAFC03B030BDB6
:109CF800E82B0020012813B509D003D303281BD073
:109D080002B010BD0F4B0122C3F88020F8E702A86B
:109D180000230D4C00F8013DFDF76EFC23780BB9CC
:109D2800FFF7B4FFE3689DF807000133E360012300
:109D3800A370FDF785FCE3E700F092F8FFF7C2FF98
:109D4800DEE700BF00E100E0E82B00201FB5037844
:109D58008DF8003043680193037A8DF80830C368A2
:109D68000393054A054B684653F8213052F82110F1
:109D7800984705B05DF804FBFC2B0020002C002060
:109D88001FB503788DF800304368019383688DF818
:109D98000830C3680393054A054B684653F82130D9
:109DA80052F82110984705B05DF804FBFC2B002001
:109DB800002C0020F0B5194B067891F81DE043F807
:109DC8002620174B94460A6943F82620154B03F8BA
:109DD80006E00C4607460FCC89B06D460FC594E8DF
:109DE8000F0085E80F000496BEF1000F0AD0BCF101
:109DF800000F0D4A694608BF0022381D00F062FEB8
:109E080009B0F0BDBCF1000F084A694608BF00223E
:109E180007F10C0000F058FCF2E700BF002C00200E
:109E2800FC2B0020042C0020559D0200899D020077
:109E380000F18040002382B0036003680193019B16
:109E480002B07047054A13792BB9012110601171CE
:109E58005371184670478520704700BF082C0020B2
:109E6800084B1A68D20706D4C02283F800230122BF
:109E7800C3F880211A604FF080430122C3F81825E7
:109E8800704700BF00E100E0044B01221A604FF068
:109E98008042D2F81834DB03FBD470470C00004032
:109EA800124B1B6810B573B14FF48070FFF7C0FFF9
:109EB8004FF080430122C3F808230D4B587910B99D
:109EC8005A711B6898470B4B1B6873B14FF482702B
:109ED800FFF7AEFF4FF080430222C3F80823044B7C
:109EE80001201B68BDE81040184710BD0001004064
:109EF800082C00200401004000F1804000F5C0401B
:109F0800002382B0036003680193019B02B070478D
:109F1800800000F1A040D0F8003723F44033C0F8A7
:109F28000037D0F8003743EA0141C0F800177047FE
:109F3800054B4FF0FF32072843F8202084BF1B1839
:109F480083F84820704700BF102C0020C20805493C
:109F580000F0070001238340885C20EA030088544E
:109F6800704700BF642C002010B5174C94F8583087
:109F780043BBFF21E2180133202B82F83010F9D1BE
:109F88000021C8B2FFF7D4FF01310C29F9D104220E
:109F980000210E4806F078FC0D4BC02283F80623FA
:109FA8004022C3F880214FF4BE701A60FFF7A4FF67
:109FB800084B4FF00042C3F80423012384F85830BB
:109FC800002010BD0820FCE7102C0020642C002085
:109FD80000E100E000600040034B93F858000030B7
:109FE80018BF0120704700BF102C002030B52E4C40
:109FF800231893F93020013253D18A78002A4CD0A3
:10A00800002354F8235001354FEA830240D1251824
:10A0180002F1804202F5C04285F83030002544F84C
:10A028002350D2F810550B784C7825F498151B045A
:10A03800240525F4F85504F4801403F44033C2F8D9
:10A04800105523430402D2F8105504F4F85423435E
:10A058002B43C2F810354A780123012A4FF0A04259
:10A0680003FA00F30CBFC2F80835C2F80C3500F546
:10A07800E073032142F82310C2080C49012300F0C1
:10A08800070003FA00F08B5C18438854002003E0B3
:10A098000133082BB5D1042030BDFE2283F83020CF
:10A0A800D9E70820F8E700BF102C0020642C002016
:10A0B80038B516490D18044695F83000072809D810
:10A0C800FFF736FF95F93030114A03F5A2730020E7
:10A0D80042F823000B19FF2201EBD40183F830204A
:10A0E80091F85420012304F007018B401A420BD049
:10A0F80004F5E0724FF0A043022143F822102046F5
:10A10800BDE83840FFF722BF38BD00BF102C002043
:10A1180000600040074B184490F930309B0003F171
:10A12800804303F5C043D3F8102542F00302C3F877
:10A1380010257047102C0020054B184490F930006A
:10A148000C308000C0B200F1804000F5C04070477C
:10A15800102C0020054B184490F93000183080006E
:10A16800C0B200F1804000F5C0407047102C0020BC
:10A178000A4B1844003190F930304FEA830303F159
:10A18800804303F5C04318BF0121D3F8102522F4FA
:10A19800801242EA0152C3F810257047102C0020A3
:10A1A800F0B5394D2C18944694F93040002C68DAF3
:10A1B8008E78C6F34006002E15BF00230823082713
:10A1C8000C27BB4201D10420F0BD55F823200132F1
:10A1D8004FEA830441D12F1845F823C087F830305F
:10A1E80016B9EA1882F848008A78560716D4D707AD
:10A1F80035D5820002F1A042D2F8006726F00206A7
:10A20800C2F80067214FC60800F0070C012202FAC5
:10A218000CF217F806C042EA0C02BA558A780E7892
:10A2280012F0020224D004F1804303F5C043000277
:10A23800D3F8102522F4473222F44072C3F81025CF
:10A248003604D3F8102500F4F85006F440363043AD
:10A258001043C3F810050020B6E70133B1E74E7884
:10A2680000F5E0724FF0A047B60047F82260C9E752
:10A27800083B2B4493F8500040EA861683F8506058
:10A28800E9E70820A0E700BF102C0020642C00207C
:10A2980038B5204C251895F93020072A18DD2244B6
:10A2A80092F848309B09032B0DD14FF0A043D3F807
:10A2B8001035C34013F0010F0CBF02210321BDE884
:10A2C8003840FFF725BE012B14BF03210221F6E712
:10A2D800D3B2072B1CD8930003F1804303F5C04386
:10A2E800D3F8100540F00100C3F8100502F1400052
:10A2F800800080B2FFF700FE51B195F9303054F874
:10A3080023302BB1012303FA02F2034BC3F80423D1
:10A3180038BD00BF102C0020006000404FF0A04363
:10A32800D3F8103523FA00F000F001007047000060
:10A338002DE9FF470024584A584E594D01940121F0
:10A348001368A2F5C040012B80B206D1D6F80433B9
:10A358000B4202D0FFF7D0FD0C430432AA424FEA69
:10A368004101EDD14F4B1B68012B0AD14FF4BE7050
:10A37800FFF7C2FD4FF0A04344F00044D3F8103576
:10A38800019314F0FF0F1AD0474F002501263442DD
:10A3980010D0AB0003F1804303F5C043D3F8100598
:10A3A800D3F8101557F82530C0F30420C1F3014144
:10A3B80003B198470135082D4FEA4606E7D1002C2E
:10A3C80066DA00224FF0FF33CDE90223DFF8D89098
:10A3D8000127002634464FF0A04809EB060393F9FD
:10A3E8005020531C45D0D2B222F0C005E90804A879
:10A3F800084402F0070310F804CC07FA03F31CEA38
:10A40800030F36D009EB050C92099CF930C059F8B6
:10A418002CA0BAF1000F0AD1032A2AD10DF1080E97
:10A428001EF801C04CEA030C0EF801C001E0032A33
:10A43800F4D005F5E07110F80C0C58F8211018420A
:10A44800C1F3014105D0022913D1032A0BD11146CA
:10A4580004E003290DD1032A05D102212846FFF77C
:10A4680057FD0134E4B2BAF1000F02D01146284674
:10A47800D0470136042EB0D154B14FF0A043019A11
:10A48800D3F81035934203D00193029B0393A0E7BE
:10A4980004B0BDE8F08700BF0061004000600040E4
:10A4A800206100407C610040102C0020014B1B689B
:10A4B800184700BF6C2C00200D4B984237B50D464D
:10A4C80010D102A8002300F8013DFDF795F8094BCB
:10A4D8001C7914B901221D601A719DF80700FDF757
:10A4E800AFF814B9002003B030BD1120FBE700BF5E
:10A4F800002000406C2C0020034B984201BF034B06
:10A5080000221A601A717047002000406C2C00204D
:10A518000023435082B043580193019B02B0704717
:10A528000A4610B54FF48E71FFF7F2FF136A91686F
:10A53800C95C136A01331362C0F81C1510BD8B691E
:10A548000A4610B54FF4847123B9FFF7E1FFD0F83C
:10A55800183510BDFFF7DCFF536AD168D0F818052D
:10A56800C854536A01335362F3E700001FB501234F
:10A578008DF80030044BCDE90110D3E9001268468C
:10A58800904705B05DF804FB742C002030B54C4AA8
:10A59800D2F8043313F4007F85B015464FD0D2F8B3
:10A5A8002431002B4BD04FF492711046FFF7B0FFC7
:10A5B8004FF40173C2F80833424B93F8291009B9D4
:10A5C800012151603E4902228DF80020D1F88024F3
:10A5D800C1F8802403929A690292DA6801920022F3
:10A5E800C3E906226846D3E9001290473448D0F8F8
:10A5F8001C315BB133490A6A4B699A420A464BD20D
:10A6080091F82830002B47D1FFF78AFF2C4AD2F85F
:10A61800443193B14FF4A2711046FFF779FF294BEB
:10A6280093F8291009B1012111609A692AB1002211
:10A638009A61586AD968FFF799FF05B030BDD5F817
:10A6480004335B07D2D5D5F80831002BCED01D4C8A
:10A658001B482146FFF773FF636AA2699A422346A3
:10A66800C4D1E269E1684AB12369E3600023606A02
:10A67800A261E3616362FFF779FFB7E794F82920E5
:10A688000AB901226A600E4A4FF40170C2F8080341
:10A6980000229A61586AEEE74FF48E710848FFF776
:10A6A80037FF51690029B1D00023029191688DF8D4
:10A6B8000030019153616846D2E900139847A5E735
:10A6C80000200040742C00202DE9F8435A4B0479EF
:10A6D80091462C2202FB0432064692F82A200D46A7
:10A6E8009846002A40F0A38054490068FFF7E4FE2A
:10A6F8000746002840F09D8029683368481C0BD025
:10A708004FF0A04001228A40C0F8082501F5E07208
:10A718004FF0030C40F822C06868421C1FBF00F5C8
:10A72800E0724FF0A04C4FF0000E4CF822E0AA69FE
:10A7380095F814C0C3F824256A7DBCF1010F4CEAD2
:10A748000202C3F86C25C3F81405C3F80C151DD113
:10A75800AA68511C1FBF02F5E0714FF0A0404FF0EE
:10A76800000C40F821C0E968481C0BD04FF0A04C01
:10A7780001208840CCF8080501F5E0704FF0030E81
:10A788004CF820E0C3F80815C3F810252C236343C0
:10A7980008EB0302C2F804902A6948F80320B9F1CB
:10A7A800000F31D04FF48E7130682D7FFFF7B0FE67
:10A7B80030684FF4A271FFF7ABFE3268204BC2F845
:10A7C8000433120B53B2002BA8BF03F160404FEAC9
:10A7D80053134FEA4511BABF1A4802F00F0500F5A6
:10A7E80061404FEA8303C9B203F16043B4BF4155E6
:10A7F80080F8001303F5614302F01F02012101FAFA
:10A8080002F2C3F880211A6033680422C3F80025D5
:10A818002C2303FB04830022C3E9062283F82920A2
:10A828005A61012283F82A203846BDE8F8830827B0
:10A83800FAE71127F8E700BF742C002095A502005D
:10A848008000020014ED00E0F8B5047900682D4D91
:10A858000023C0F800352C2303FB04535B6873B155
:10A86800294BC0F80833020B53B201215B0902F0EF
:10A878001F0201FA02F22033244941F82320D0F8BC
:10A888000C65D0F81415D0F80835D0F810254FF01D
:10A89800FF37BE42C0F8147518BF06F5E076C0F859
:10A8A8000C75C0F80875C0F810751EBF4FF0A047AA
:10A8B8004FF0020C47F826C04E1C1FBF4FF0A046B1
:10A8C80001F5E071022746F82170511C1FBF4FF0B7
:10A8D800A04102F5E072022641F822605A1C1FBF0F
:10A8E80003F5E0734FF0A042022142F82310FFF76E
:10A8F80003FE2C2303FB0454002384F82A306360EE
:10A90800F8BD00BF742C00208402020000E100E0C2
:10A918002DE9F843224F06794FF02C0909FB0674FC
:10A9280080466569002D37D16261A16025624FF4C8
:10A938008E71006884F82850FFF7EAFDD8F8000007
:10A94800012383602146FFF7EBFD6368A1462BBB1B
:10A95800D8F80050226A63699A4212D3D8F80030B6
:10A96800D3F81C21002AFBD00122DA6000202C2316
:10A9780003FB067600237361BDE8F88394F828305A
:10A9880043B9D5F81C31002BF8D049462846FFF7C3
:10A99800C7FDDFE70F20EAE71120EDE72846EBE7E0
:10A9A800742C00200023435082B043580193019B2C
:10A9B80002B070471FB501238DF80030054B8DF8A4
:10A9C800080001916846D3E90012904705B05DF888
:10A9D80004FB00BFA02C00207FB5384AD2F82461C0
:10A9E800002E49D010464FF49271FFF7DBFF022387
:10A9F8008DF80030D2F88034C2F880340393D2F84E
:10AA08003C358DF808302E4BDA6801920022C3E9F4
:10AA180006226846D3E900129047284AD2F8443102
:10AA280073B14FF4A2711046FFF7BCFF244B99692C
:10AA380031B100219961D2F83C05D968FFF7BAFF16
:10AA48001E4AD2F82031ABB14FF490711046FFF78F
:10AA5800A9FF1B4B596969B1D2F84C158DF808103C
:10AA6800002299688DF8002001915A616846D3E95F
:10AA78000012904704B070BDD2F81031002BCCD032
:10AA88004FF488711046FFF78DFF0D4BD2F83C0547
:10AA980099698842C1D1DC69D96864B1D2F8005299
:10AAA80025F02005C2F800521A699C61DA60DE615F
:10AAB800FFF780FFB1E79C61FAE700BF0020004084
:10AAC800A02C00202DE9F8435E4B067991462422FC
:10AAD80002FB0632044692F820200D469846002ACA
:10AAE80040F0AB8058490068FFF7E6FC07460028AD
:10AAF80040F0A58029682368481C0BD04FF0A0407F
:10AB080001228A40C0F8082501F5E0724FF0030CD5
:10AB180040F822C06868421C1FBF00F5E0724FF081
:10AB2800A04C4FF0000E4CF822E0AA6995F814C02A
:10AB3800C3F824256A7DBCF1010F4CEA0202C3F870
:10AB48006C25C3F80C15C3F814051DD1AA68511C4F
:10AB58001FBF02F5E0714FF0A0404FF0000C40F825
:10AB680021C0E968481C0BD04FF0A04C0120884058
:10AB7800CCF8080501F5E0704FF0030E4CF820E022
:10AB8800C3F80815C3F810252423734308EB030200
:10AB9800C2F804902A6948F80320B9F1000F3BD0A5
:10ABA8004FF4887120682D7FFFF7FCFE4FF49071F9
:10ABB8002068FFF7F7FE4FF492712068FFF7F2FE66
:10ABC80020684FF4A271FFF7EDFE22681F4BC2F810
:10ABD8000433120B53B2002BA8BF03F160404FEAB5
:10ABE80053134FEA4511BABF194802F00F0500F593
:10ABF80061404FEA8303C9B203F16043B4BF4155D2
:10AC080080F8001303F5614302F01F02012101FAE5
:10AC180002F2C3F880211A6023680822C3F80025CD
:10AC2800242303FB06830022C3E906225A6101227A
:10AC380083F820203846BDE8F8830827FAE711276B
:10AC4800F8E700BFA02C0020E1A9020010030200D1
:10AC580014ED00E0F8B5047900682D4D0023C0F824
:10AC68000035242303FB04535B6873B1294BC0F8F8
:10AC78000833020B53B201215B0902F01F0201FAEB
:10AC880002F22033244941F82320D0F80C65D0F88B
:10AC98001415D0F80835D0F810254FF0FF37BE420C
:10ACA800C0F80C7518BF06F5E076C0F81475C0F842
:10ACB8000875C0F810751EBF4FF0A0474FF0020C82
:10ACC80047F826C04E1C1FBF4FF0A04601F5E071A3
:10ACD800022746F82170511C1FBF4FF0A04102F512
:10ACE800E072022641F822605A1C1FBF03F5E07388
:10ACF8004FF0A042022142F82310FFF7FDFB242366
:10AD080003FB0454002384F820306360F8BD00BFBF
:10AD1800A02C00201003020000E100E001F06043D5
:10AD2800B3F1005F2DE9F041074632D11C4B06799B
:10AD3800242505FB063598466C6964BB6A61A960E1
:10AD480000684FF49071FFF72DFE4FF4AC7138682E
:10AD5800FFF728FE3B686A69A968C3F84415C3F879
:10AD6800482501229A606A68BAB9D3F82011D3F845
:10AD7800582149B9002AF8D00F20242303FB06865E
:10AD880000237361BDE8F081002A14BF0F20002062
:10AD9800F3E71020F6E71120F4E72046F2E700BFBA
:10ADA800A02C002000F1804000F5E040002382B094
:10ADB800036003680193019B02B07047F0B5514BE3
:10ADC800514C1B6885B0DBB14FF4827094F82E208B
:10ADD800FFF7E8FF12B194F82F30A3B1636802932C
:10ADE8002389ADF80C30E36800218DF80410002B9E
:10ADF80044D12374236801A89847002384F82F308E
:10AE080094F82E3003B3414B1B68EBB14FF48070BC
:10AE1800FFF7C8FF94F82D20638B91B28B4238D985
:10AE28005B1A21899BB26383CB1A616801EB4301EA
:10AE3800374BC3F82C16C3F830264FF48270FFF74F
:10AE4800B1FF344B01221A60334B1B685BB14FF4DE
:10AE58008870FFF7A7FF002304A82374022300F8D3
:10AE68000C3D236898472D4B1B6813B34FF48A7029
:10AE7800FFF798FF0023237405B0F0BD208B608393
:10AE880063602081E160002AB4D1214B01221A605D
:10AE9800B0E7D2D1E368012184F82F103BB100213B
:10AEA80061831B49C1F82C36C1F83026C5E7638396
:10AEB800C3E766694FF000470125002EDCD0B6FADB
:10AEC80086F227FA02F34632920026EA030602F1D6
:10AED800804303F5E0431B68002BEED01046FFF7D4
:10AEE80061FFA2F58C72D30882F00402C2F38002DB
:10AEF8008DF808308DF804508DF80920236801A8D2
:10AF08009847DAE704710040C42C00200071004023
:10AF1800007000400470004010710040147100403F
:10AF2800084A137CDBB2012B09D192F82E0018B124
:10AF3800054A002013607047044A136070470820D0
:10AF4800704700BFC42C002000700040047000400F
:10AF58002DE9F74F4FF00009154D164E07464FF0F3
:10AF6800040AC8465FFA89FB01240DF1070004FAB8
:10AF78000BF48DF80780FCF73FFB2C4208D03368B0
:10AF880014EA030201BF2343336087F800B09246F6
:10AF98009DF80700FCF754FBBAF1000F03D0A54356
:10AFA80009F10109DED1504603B0BDE8F08F00BFBA
:10AFB800FFFF0100F42C002037B501258540C5F3BB
:10AFC8001003A3B10B4B02A80024C3F8085500F8DE
:10AFD800014DFCF711FB084A9DF80700136823EAA6
:10AFE80005051560FCF72CFB204603B030BD072093
:10AFF800FBE700BF00F00140F42C002010B5A1B120
:10B008009AB101238340C3F3100484B10A4C246825
:10B0180023420ED0C00000F1804000F5F830C0F89F
:10B028001015C0F81425002010BD0E20FCE70720DD
:10B03800FAE70820F8E700BFF42C0020012303FA00
:10B0480000F0430C5B044BB918B1064B1B6818425F
:10B0580006D0054BC3F80405002070470720704749
:10B0680008207047F42C002000F00140012303FA67
:10B0780000F0430C5B044BB918B1064B1B6818422F
:10B0880006D0054BC3F80805002070470720704715
:10B0980008207047F42C002000F00140034B18787A
:10B0A80010B901221A70704785207047F82C0020CB
:10B0B8002DE9F743002406460F4600F5A0754FF426
:10B0C8008038A14604F150002B68800080B26BB133
:10B0D800D6F8043308FA04F21A4207D0C5F80090EB
:10B0E8002B680193019BD7E9003198470134042C60
:10B0F80005F10405E6D103B0BDE8F083F7B505799D
:10B10800334C0C266E43A7193B7A002B5ED1A25113
:10B118004A687A60467900681F46DAB296424BD888
:10B12800020B53B2CE78002BA8BF03F16047D2B20E
:10B138004FEA5313B8BF02F00F0C4FEA4616B4BFDC
:10B14800244F07F561474FEA8303F6B203F16043E2
:10B15800B4BF07F80C6087F8006303F56143012664
:10B1680002F01F0206FA02F2C3F880211A60D0F832
:10B1780004254B7822F0030203F003031343C0F8BD
:10B188000435D0F808258B7822F0030203F0030376
:10B198001343C0F80835D0F810250B7822F00F02B9
:10B1A80003F00F031343C0F810350C2303FB0544C9
:10B1B8000020267203B0F0BD03F15002013340F8BD
:10B1C800227050F822200192019AA6E70820F1E7A0
:10B1D800FC2C002014ED00E0036801221A600379BA
:10B1E800034A0C2101FB032302221A72704700BF95
:10B1F800FC2C00200368044901221A6103790C2001
:10B2080000FB03131A727047FC2C00200268110B14
:10B2180038B54BB201245B0901F01F0104FA01F1B2
:10B2280020330B4C44F823100546D2F80032002492
:10B238004FF0FF33C2F80042C2F80833FFF7DAFFD5
:10B248002B79044A0C2101FB03231C7238BD00BF73
:10B2580000E100E0FC2C002003680122DA6070475E
:10B2680037B54FF480348C4000687BB101F150034E
:10B278009B000025C550C3580193019BC0F80443A7
:10B2880001F5A87140F8212003B030BDC0F808438B
:10B29800F6E7F0B404689DF81070D4F8005240F254
:10B2A80001168E4025EA0605C4F80052D4F800526B
:10B2B8002B43C4F800323B46F0BCFFF7D1BF01F185
:10B2C80050039B0002689BB20020D05082B0D35834
:10B2D8000193019B4FF4803303FA01F1C2F8041380
:10B2E80002B0704702684FF4803303FA01F1C2F8E4
:10B2F8000813704701490248FFF7DABEFC2C00200A
:10B308000080004001490248FFF7D2BE082D002006
:10B318000090004001490248FFF7CABE142D0020E2
:10B3280000A000400220FEF72DBC00002DE9F047E8
:10B3380081460D46FEF746FC0328044604D8012D35
:10B3480004D024D3022D2FD0BDE8F087194D470033
:10B358003A18A918AE5C4A7852B1DFF868801648E6
:10B3680042464FF40041FCF7F3F808B988F800901A
:10B378003B192B449A78114B1A55002EE4D0104BE8
:10B388001B68002BE0D03046BDE8F04718470A4854
:10B39800FCF722F9074B04EB440213449E78074B51
:10B3A8001B5DB342D0D1E8E7024B00EB40041C44DC
:10B3B8006678E2E7842D0020442D00209D2D002092
:10B3C800982D0020202D002002210078FFF7AEBF25
:10B3D80008B5094B1B7853B10020FEF7A9FB0120E3
:10B3E800FEF7A6FB0320BDE80840FEF7A1BBBDE8B9
:10B3F8000840FEF7A9BB00BF212D0020F8B57B4C03
:10B40800237805461BB100232370FFF7E1FF172DB2
:10B4180000F28880DFE805F00C1717435465768042
:10B42800888D888D959A9A9A9A9AC4C9D1D9E4E454
:10B43800FFF7CEFF6E48FCF7CFF86E4B00220446AC
:10B448001A702046F8BD0020FEF758FBF8B100201E
:10B45800FEF76EFB022D0CBF4FF4E1614FF47A61E9
:10B46800644B1D704FF400404FF4FA740025E0FB64
:10B4780001454FF47A7200232046294605F0E0F88A
:10B48800002201465A48BDE8F840FCF761B8FEF7CB
:10B4980043FB022D0CBFC8214FF4C871E0E7002020
:10B4A800FEF72CFB40B10020FEF742FB4FF4487139
:10B4B800504B03221A70D5E7FEF72EFBC821F7E799
:10B4C8000020FEF71BFB38B10020FEF731FB4FF4DC
:10B4D8007A61484B0422EDE7FEF71EFB4FF4C87172
:10B4E800F7E70020FEF70AFB48B10020FEF720FB33
:10B4F800404B05221A7041F69A110022C2E7FEF766
:10B508000BFBF5E70020FEF73DFB3A4B06221A70CD
:10B51800002240F6CD41B5E70020FEF7FDFA354B95
:10B5280007221A7000248CE701202070FEF72AFBFE
:10B53800EEE701202070FEF725FB00224FF4804142
:10B54800A0E7FEF710FB2B4B0C22EAE72A482B4E0C
:10B55800FCF742F8D5F1110504461CD0D8B9012DE5
:10B5680013D0C8235D434FF400474FF4FA7000210D
:10B578004FF47A720023C7FB050105F061F82246F3
:10B5880001461D48FBF7E4FF04460220FEF7C4FA13
:10B598000123337055E70220FEF7CAFA0023F8E7C3
:10B5A800FFF716FF134B1222BBE7FFF711FF00202E
:10B5B800FEF7B2FA0F4B1322B3E7FFF709FF01209A
:10B5C800FEF7AAFA0B4B1422ABE7FFF701FF0020A6
:10B5D800FEF7A2FA0120FEF79FFA064B1522A0E714
:10B5E800FEF7C1FA034B1D709CE700BF942D0020A5
:10B5F800642D00209C2D0020242D0020212D0020CA
:10B60800044B1B68DB0703D5034B1878FFF7F6BE1E
:10B61800704700BF902D00209C2D0020032801D8E2
:10B62800FEF7C2BA00207047044B1B6813F00103F1
:10B6380001D0FFF7E3BE1846704700BF902D0020E9
:10B6480038B51C4B18601C4B10F0020405461960F5
:10B658001AD01A4B1A480E221A700F22DA701022CA
:10B668009A7111225A72042140F26662FBF772FC49
:10B67800044648B9FBF7C2FC044628B90146114AFA
:10B688001148FBF753FF0446EB0711D50120FEF7DD
:10B69800B1FA6CB921460D4A0D48FBF747FF04463D
:10B6A80030B90C4A0C480121BDE83840FBF73EBFD1
:10B6B800204638BD902D0020982D0020842D002094
:10B6C800AC130300D1B30200D013030009B6020083
:10B6D800D41303002DB30200CC130300032812D89F
:10B6E800012A0BD1012908D100F10E02D2B200EBD8
:10B6F80040000C4B1A540020704700220129F6D054
:10B7080009D3022901D007207047064B00EB4000FF
:10B7180018444270EFE7034B00EB40001844827076
:10B72800E9E700BF842D0020032808B512D8FEF7EA
:10B738005BFA800000F1A040D0F8003723F44033D2
:10B74800C0F80037D0F8003743F44033C0F800376A
:10B75800002008BD0620FCE708B5012202210020D0
:10B76800FFF7BCFF08B1072810D1072202210120EA
:10B77800FFF7B4FF08B1072808D100210A220846BC
:10B78800FFF7ACFF10B1072808BF002008BD000074
:10B798000388102B10B502D0112B1ED010BD1A4CE7
:10B7A8002168B1B901220846FFF798FF08B10728B8
:10B7B80024D1072202210120FFF790FF08B10728B2
:10B7C8001CD1042202210020FFF788FF08B10728B6
:10B7D80014D1236801332360E0E70B4A1368013B67
:10B7E8001360002BDAD1FFF7B7FF0028D6D0074B3C
:10B7F8001B68002BD2D0BDE810401847034B1B68CC
:10B80800002BE6D09847E4E7A82D0020A42D0020BF
:10B8180008B50020FFF788FF08B1062806D10120E7
:10B82800FFF782FF10B1062808BF002008BD0000FE
:10B838000D4B10B518600C4629B10120FFF7EEFE3C
:10B8480040B102232370094B1B6853B9BDE810406F
:10B85800FFF782BFFFF7E2FE08B10B23F2E7207083
:10B86800F1E7002010BD00BFA42D0020A82D002066
:10B8780076DF70477ADF70477CDF70478FDF70476D
:10B8880033DF7047FBF7D0BB08B5FFF749FB18B1AA
:10B89800BDE80840FBF7C8BB08BD08B50020FFF7A6
:10B8A800C3FE08B1FBF7C0FBFFF7B2FF08B1FBF717
:10B8B800BBFBFFF7E5FF18B1BDE80840FBF7B4BBD9
:10B8C80008BD00000388212B13B504463BD005D8DA
:10B8D800102B17D0112B0AD002B010BD3B2B01D072
:10B8E800562BF9D11321A088FFF7C2FF26E01A4B87
:10B8F8001A481B49C01AC008000440F00300FBF7AF
:10B90800D5F8E9E7144B15481649C01AC0080004D1
:10B9180040F00300FBF7CAF80720FFF785FE4FF059
:10B92800A0434FF40062C3F80C2508B1FBF77CFB79
:10B938000D4BA1880D48198002F0DCFA0028CBD005
:10B94800FBF772FBC8E702A9002321F8043D8088B1
:10B95800FFF794FFF2E700BFFC0903003C0A03006D
:10B96800101403001E14030058220020A4300020E5
:10B9780038B5114D1446224601212846FDF7D8FD59
:10B988001128F8D00C4D224600212846FDF7D0FD9D
:10B998001128F8D0094D224600212846FDF7C8FD98
:10B9A8001128F8D0054D224601212846FDF7C0FD93
:10B9B8001128F8D038BD00BF001403000814030094
:10B9C80008B503784BB9054B3B211888FFF750FFA2
:10B9D80018B1BDE80840FBF727BB08BD5822002076
:10B9E800072808B513D00A280DD0042819D10D4B03
:10B9F80013211888FFF73CFF30F0080311D0BDE889
:10BA08000840FBF711BBBDE80840FFF746BF054BF0
:10BA18001A884FF6FF739A4203D1034800F045FF96
:10BA2800EAE708BD58220020AC2D002008B598B1DF
:10BA3800032815D10B4B0C480C49C01AC008000448
:10BA480040F00300FBF732F80220FFF7EDFD38B1B4
:10BA5800BDE80840FBF7E8BABDE80840FFF71DBF9E
:10BA680008BD00BFFC0903003C0A03006C14030076
:10BA78000A7808B512B1012A0BD008BD4FF470112D
:10BA88000648FBF765FD0028F7D0BDE80840FBF73E
:10BA9800CBBA0248FBF7A0FDF5E700BF183000203D
:10BAA80008B50321064800F0BCFD08B1FBF7BCFA55
:10BAB8004FF0A0434FF40062C3F8082508BD00BF4B
:10BAC800AC2D002010B5044603F016FD204603F007
